:020000040800F2
:1000000000000220255B00088D0900088F09000808
:1000100091090008930900089509000800000000F4
:100020000000000000000000000000001141000876
:100030009709000800000000B14100085B3E00087D
:10004000755B0008755B0008755B0008755B000850
:10005000755B0008755B0008755B0008755B000840
:10006000755B0008755B0008755B0008755B000830
:10007000755B0008755B0008755B0008755B000820
:10008000755B0008755B0008755B0008755B000810
:10009000755B0008755B0008755B0008755B000800
:1000A000755B0008755B0008755B0008755B0008F0
:1000B000755B0008755B0008755B0008755B0008E0
:1000C000755B0008755B0008755B0008755B0008D0
:1000D000755B0008755B0008755B0008755B0008C0
:1000E000755B0008755B000800000000755B000888
:1000F000755B0008755B0008755B0008755B0008A0
:10010000755B0008755B0008755B0008755B00088F
:10011000755B0008755B000899090008755B0008AD
:10012000755B0008755B0008755B0008755B00086F
:10013000755B0008755B0008755B0008755B00085F
:1001400000000000000000000000000000000000AF
:10015000755B0008755B0008755B0008755B00083F
:10016000755B0008755B0008755B0008755B00082F
:10017000755B0008755B0008755B000800000000F7
:10018000755B0008755B0008755B0008755B00080F
:10019000755B0008755B0008755B0008755B0008FF
:1001A000755B0008755B0008755B000800000000C7
:1001B000755B0008755B0008755B0008755B0008DF
:1001C000755B0008755B000800000000000000007F
:1001D0000000000000000000755B00080000000047
:1001E000000000000000000000000000000000000F
:1001F0000000000000000000755B0008755B00084F
:10020000755B0008755B000800000000755B000866
:10021000755B0008755B0008755B0008755B00087E
:10022000755B000800000000755B0008000000001E
:10023000755B0008755B000800000000755B000836
:10024000755B0008755B0008755B0008755B00084E
:10025000755B0008755B0008755B0008755B00083E
:10026000755B0008755B0008755B0008755B00082E
:10027000755B0008755B0008755B000800000000F6
:10028000755B0008755B0008755B0008755B00080E
:1002900000000000755B0008755B000800000000AE
:1002A00000000000755B0008755B0008755B0008C6
:1002B000755B0008755B0008755B0008755B0008DE
:0C02C000755B0008755B0008755B0008AA
:1002D00053B94AB9002908BF00281CBF4FF0FF31AD
:1002E0004FF0FF3000F00CB8ADF1080C6DE904CE12
:1002F00005F07CFCDDF804E0DDE9022304B0704782
:10030000704700BF10B5054C237833B9044B13B1C7
:100310000448AFF300800123237010BDD4000020F7
:1003200000000000A85E000808B5034B1BB103499C
:100330000348AFF3008008BD00000000D800002093
:10034000A85E00082DE9F0418CB0002407940894C1
:1003500009940A940B94594BD3F8E02042F004021C
:10036000C3F8E020D3F8E02002F004020092009AE3
:10037000D3F8E02042F08002C3F8E020D3F8E02078
:1003800002F080020192019AD3F8E02042F00102CB
:10039000C3F8E020D3F8E02002F001020292029AB2
:1003A000D3F8E02042F00202C3F8E020D3F8E020C6
:1003B00002F002020392039AD3F8E02042F008020E
:1003C000C3F8E020D3F8E02002F008020492049A77
:1003D000D3F8E02042F04002C3F8E020D3F8E02058
:1003E00002F040020592059AD3F8E02042F0100294
:1003F000C3F8E020D3F8E03003F010030693069B27
:100400002F4F224644F20101384600F0C7FFDFF8C3
:10041000C08022464FF48061404600F0BFFF294E65
:1004200022460221304600F0B9FF4FF400530793F3
:100430000894099407A9244800F0A6FE44F2010399
:1004400007930125089509940A9407A9384600F0F6
:100450009BFE4FF480670797089509940A9407A9B3
:10046000404600F091FE802307934FF488130893D1
:10047000099407A9154800F087FE4FF4007307930D
:1004800008940994A8F5406807A9404600F07CFE4E
:1004900007970227089709940A940A230B9307A940
:1004A000404600F071FE0797089509940A9407A941
:1004B000304600F069FE0CB0BDE8F08100440258FF
:1004C0000004025800100258000802580018025890
:1004D000000C025808B50121034800F065FF4FF4F5
:1004E000FA7003F053FDF6E70004025808B54FF424
:1004F0008041034800F058FF642003F047FDF6E711
:100500000004025808B50268034B9A4200D008BDA7
:1005100000F0CEFAFBE700BF0010004072B6FEE725
:1005200010B51448144B0360144B00221A7080213C
:100530005970E1219970DA701A715A714360012380
:1005400003720F4BC3600F4B036140F2F4534361DE
:1005500000F064FD58B90C4C38220021204605F00B
:100560000AFB212323604FF44033636110BDFFF782
:10057000D5FF00BF9401002000800240F000002061
:1005800014000020740000204402002008B5154823
:10059000154B03604FF4E133436000238360C36075
:1005A00003610C2242618361C3610362436283621F
:1005B00003F091FB70B900210A4803F004FC58B91C
:1005C0000021084803F024FC40B9064803F0DCFB96
:1005D00030B908BDFFF7A2FFFFF7A0FFFFF79EFFAE
:1005E000FFF79CFF000100200048004000B59DB0CF
:1005F0004C22002109A805F0BEFA2022002101A802
:1006000005F0B9FA022000F0D9FE00230093214B37
:100610009A6922F440429A619B6903F44043009333
:10062000009B1C4B9B6913F4005FFAD021230993B4
:100630004FF4A0230A9301210F91022212921392E8
:100640000423149340F213101590169117931892E7
:10065000199300231A931B9309A800F0D9FEA8B997
:100660003F23019303210291002303930823049362
:100670004023059306934FF480620792089301A8E4
:1006800001F0B4FA20B91DB05DF804FBFFF746FF96
:10069000FFF744FF0048025808B500F0DBF9FFF708
:1006A000A5FFFFF74FFEFFF73BFFFFF76FFF03F0DC
:1006B000E1FB084A0021084803F00AFC074B1860D8
:1006C000074A0021074803F003FC074B186003F0BA
:1006D000E3FBFEE7145F0008D5040008FC000020DF
:1006E000F05E0008ED040008F800002000B583B0BB
:1006F0000A4BD3F8F42042F00202C3F8F420D3F8F6
:10070000F43003F002030193019B00220F216FF0EC
:10071000010000F03BFA03B05DF804FB004402580E
:1007200070B58CB000230793089309930A930B9339
:100730000268434B9A4201D00CB070BD414BD3F8D4
:10074000D82042F40042C3F8D820D3F8D82002F4CD
:1007500000420092009AD3F8D82042F48032C3F8C5
:10076000D820D3F8D82002F480320192019AD3F82D
:10077000D82042F40032C3F8D820D3F8D82002F4AD
:1007800000320292029AD3F8E02042F00402C3F849
:10079000E020D3F8E02002F004020392039AD3F899
:1007A000E02042F00102C3F8E020D3F8E02002F09C
:1007B00001020492049AD3F8E02042F00202C3F846
:1007C000E020D3F8E02002F002020592059AD3F867
:1007D000E02042F04002C3F8E020D3F8E03003F01C
:1007E00040030693069B32230793022608960B25A7
:1007F0000B9507A9144800F0C7FC862307930896B9
:10080000002409940A940B9507A9104800F0BCFC39
:100810004FF400530793089609940A940B9507A97F
:100820000B4800F0B1FC4FF420530793089609944D
:100830000A940B9507A9074800F0A6FC7CE700BFC7
:10084000008002400044025800080258000002588C
:10085000000402580018025810B5B6B00446002132
:1008600031913291339134913591B82202A805F03B
:1008700082F922681B4B9A4201D036B010BD022289
:100880000023CDE9022302A801F072FC38BB164B0D
:10089000D3F8E82042F48022C3F8E820D3F8E82017
:1008A00002F480220092009AD3F8E02042F008027D
:1008B000C3F8E020D3F8E03003F008030193019B74
:1008C0004FF44073319302233293002333933493D4
:1008D0000723359331A9054800F056FCCDE7FFF713
:1008E0001DFED4E70048004000440258000C0258A6
:1008F0000F2801D90120704710B58AB004460022A4
:100900000146362000F042F9362000F04FF91A4B2C
:100910001C601A4BD3F8E82042F01002C3F8E8201C
:10092000D3F8E83003F010030093009B01A902A85C
:1009300001F0ECFA079BBBB901F0C4FA0346104A78
:10094000A2FB03239B0C013B0E480F4A026040F2BE
:10095000E732C260436000230361836002F0DCFC85
:1009600030B101200AB010BD01F0ACFA4300E6E757
:10097000044802F027FBF5E70C0000200044025871
:1009800083DE1B437C02002000100040FEE7FEE7F0
:10099000FEE7FEE7FEE7704708B5024802F066FB97
:1009A00008BD00BF7C020020224AD2F8883043F400
:1009B0007003C2F88830204B1B6803F00F03062B2E
:1009C00006D81D4A136823F00F0343F00703136092
:1009D0001A4B1A6842F001021A6000221A61196863
:1009E000174A0A401A60144B1B6813F0080F06D010
:1009F000114A136823F00F0343F0070313600F4BF2
:100A000000229A61DA611A620E4999620E49D9622E
:100A10000E4919635A639963DA6319645A64196851
:100A200021F4802119601A66094B43F2D2021A6040
:100A3000704700BF00ED00E0002000520044025863
:100A40007FEDF6EA000202020000FF0180020101D0
:100A50000040005210B5032000F086F800F0CAFFF5
:100A60000F498B69C3F303230E4AD35C03F01F03C2
:100A7000D8408B6903F00F03D35C03F01F0320FA07
:100A800003F3094A1360094B18600F20FFF730FF8A
:100A900010B10124204610BD0446FFF727FEF9E7F8
:100AA00000440258385F00080000002004000020C5
:100AB000034B1B78034A11680B441360704700BF57
:100AC00008000020C8020020014B1868704700BFD2
:100AD000C8020020034A536823F4600303435360B1
:100AE000704700BF00040058002807DB00F01F0219
:100AF000400901239340024A42F82030704700BF6A
:100B000000E100E0002804DB0901C9B2044B1954DC
:100B1000704700F00F000901C9B2024B1954704729
:100B200000E400E014ED00E000B500F00700C0F1C3
:100B3000070CBCF1040F28BF4FF0040C031D062B5B
:100B40000FD9C31E4FF0FF3E0EFA0CF021EA000150
:100B500099400EFA03FE22EA0E0241EA02005DF815
:100B600004FB0023EEE700000649CB6823F4E063B2
:100B70001B041B0C000200F4E0600343024A1A430A
:100B8000CA60704700ED00E00000FA0510B50446A9
:100B9000054BD868C0F30220FFF7C6FF0146204688
:100BA000FFF7B0FF10BD00BF00ED00E008B5FFF794
:100BB0009BFF08BD30B48B680A6813430A7943EA87
:100BC000C2630A7B43EAC2534A7B43EA82538A7B6D
:100BD00043EA4253CA7B43EA02530A7C002A40F0AC
:100BE000B0804FF4002213434A7C002A40F0AB80CF
:100BF0004FF4003213438A7C43EA02434A691343A9
:100C00008A6913430A7F43EA02334A7F43EAC223D5
:100C10008A7F002A40F099804FF480621343CA7F94
:100C200043EA422391F82020002A40F090804FF4BC
:100C3000807213434A6A134391F8282043EA02134F
:100C4000CA6A13430468226822F07F4222F47B02BE
:100C500022F4FE4222F07C0213432360CA6B91F817
:100C600038301B0643EA426391F8302043EA82435E
:100C700091F8312043EA424391F83220002A68D1AA
:100C80004FF4803213434A6B13430468626822F0C6
:100C90007C5222F4EF2222F4FF6222F00702134377
:100CA000636091F840204B6C43EA02220468E568D7
:100CB0002B4B2B401343E36091F854200B6D43EA18
:100CC000420391F84C20002A45D1802213438A6CBC
:100CD00043EA02430468226F22F0F2021204120C6B
:100CE0001343236791F8562091F8553042EA4302A6
:100CF0000468D4F8903023F003031343C4F8903011
:100D00000268D2F8003D23F072038C6D2343C2F8D1
:100D1000003DCB6D91F86020FAB94022134391F861
:100D2000612043EA021391F8622043EAC20301689A
:100D3000D1F8302D22F07B021343C1F8303D30BC96
:100D4000704700224FE7002254E7002266E70022A6
:100D50006FE7002296E70022B8E70022DEE700BF37
:100D6000F0FEFFFF10B4026802F580521468234BB6
:100D700023400C68234313600A798B6843EA0233EB
:100D80000A7B43EAC232036803F5805CDCF8044066
:100D90001B4B23401343CCF804304A7B0B6A43EAD5
:100DA000024C026802F58052D2F80041154B2340F4
:100DB00043EA0C03C2F800310B690A7D43EA0213CF
:100DC0004A7F43EA0232036803F5805CDCF80441A1
:100DD0000D4B23401343CCF804310B7F896941EA62
:100DE000C371026802F58052D2F80801074B034034
:100DF0000B43C2F808315DF8044B7047FD87FFFFD5
:100E0000FE2FFFFF00C0FEFFEFEFC0FFFFFFC07F20
:100E100070B5A2B0064601258DF833500024129417
:100E20008DF841408DF843408DF828508DF856508C
:100E30008DF832508DF84C408DF884504FF40053AB
:100E40000F938DF85C4018948DF885408DF886409E
:100E50004FF4C36316938DF830400B948DF83550E2
:100E60008DF836408DF840401D941B9414948DF8F5
:100E700064408DF87A408DF84250202320938DF8FD
:100E800044508DF855404FF0405309934FF4804340
:100E90000E938DF8314002231F938DF878408DF822
:100EA00079408DF854408DF834501A948DF8705074
:100EB00009A9FFF77FFE8DF80450029500948DF884
:100EC0001C408DF80D408DF80C404FF40013069334
:100ED0008DF8144004938DF81D404FF40673089369
:100EE00069463046FFF73EFF22B070BD10B40022C5
:100EF00010E0C46802EB42034FEAC30C04EBC303E7
:100F0000002144F80C1059609960D960911D40F897
:100F100021300132032AECD900238362036803F5F0
:100F200080530322C3F82C21C268036803F5805361
:100F3000C3F81421C268036803F58053C3F8202165
:100F40005DF8044B704710B4002113E0046901EB15
:100F500041034FEAC30C04EBC303002244F80C2006
:100F60005A609A60DA601A615A6101F1120240F81F
:100F7000223001310329E9D90023C3650366836662
:100F8000C3668365036803F580530322C3F83021E9
:100F90000269036803F58053C3F81C21036903F158
:100FA0004802036803F58053C3F828215DF8044B19
:100FB0007047000038B505460368D3F8004224F4B2
:100FC000706400F05DFF104B984205D844F4007443
:100FD0002B68C3F8004238BD0C4B984202D244F44F
:100FE0004074F5E70A4B9842F2D90A4B984202D86E
:100FF00044F48074ECE7084B984202D844F48064CF
:10100000E6E744F4A064E3E7BF0E1602008793030B
:10101000FFE0F5057FD1F0087FB2E60E002800F072
:10102000A78030B583B00446D0F884309BB3514BD1
:10103000D3F8F42042F00202C3F8F420D3F8F430DD
:1010400003F002030193019B237A53BB0020FFF7B7
:1010500041FD494B5B68236803F580531A6842F0F1
:1010600001021A60FFF730FD0546236803F580533F
:101070001B6813F0010F19D0FFF726FD401BB0F5D8
:10108000FA7FF2D90423C4F88830E023C4F884300E
:10109000012003B030BD2323C0F88430FFF740FBAC
:1010A000C5E74FF40000FFF715FDD2E72046FFF734
:1010B00081FF00F0E5FE314BA3FB00239B0C22686F
:1010C000013BC2F8DC302046FFF7A2FE226802F5A1
:1010D0008052D2F8003123F4E01343F40023C2F825
:1010E0000031626912F0030F06D00120C4F88800B5
:1010F000E023C4F88430CCE7216801F58051D1F8B1
:1011000008316FF34E0343EA4203C1F80831204629
:10111000FFF7ECFE2046FFF716FF636859791B794D
:10112000226843EA0123C2F800336268D1789378D9
:101130001B0443EA0163517843EA012311782268D2
:101140000B43C2F804332268D2F80C170C4B0B4344
:10115000C2F80C372268D2F810170A4B0B43C2F8BA
:1011600010370020C4F888001023C4F8843090E7BA
:1011700001207047004402580004005883DE1B43DE
:101180006000020C00C0200CF0B583B000236BE0BF
:1011900085685E000324B44025EA0405CC68B440A9
:1011A0002C438460456825EA0C054C68C4F30014A0
:1011B0009C402C43446069E0DD08083550F8254028
:1011C00003F0070C4FEA8C0C4FF00F0E0EFA0CFEDA
:1011D00024EA0E0E0C6904FA0CF444EA0E0440F8FA
:1011E00025406BE0092400E0002404FA0EF42C43AF
:1011F0000CF1020C664D45F82C404FF0B0442568C8
:10120000D44325EA02064F6817F4801F01D042EA52
:1012100005064FF0B0452E606D6804EA05064F687C
:1012200017F4001F01D042EA05064FF0B0456E608A
:10123000D5F8845004EA05064F6817F4003F01D042
:1012400042EA05064FF0B045C5F88460D5F88050F5
:101250002C404E6816F4803F01D042EA05044FF05E
:10126000B042C2F8804001330A6832FA03F400F059
:101270008C804FF0010C0CFA03FC1CEA0202F2D045
:101280004C6804F00304013C012C81D94C6804F043
:101290000304032C0CD0C4685D004FF0030C0CFA5F
:1012A00005FC24EA0C0C8C68AC4044EA0C04C460D5
:1012B0004C6804F00304022C3FF47EAF04684FEA4C
:1012C000430E4FF0030C0CFA0EFC24EA0C0C4C6895
:1012D00004F0030404FA0EF444EA0C0404604C68BD
:1012E00014F4403FBFD02B4CD4F8F45045F0020525
:1012F000C4F8F450D4F8F44004F002040194019CC2
:101300004FEA930C0CF10205214C54F8255003F0E0
:10131000030E4FEA8E0E0F2404FA0EF425EA04059C
:101320001D4CA0423FF460AF04F58064A0421ED083
:1013300004F58064A0421CD004F58064A0421AD059
:1013400004F58064A04218D004F58064A04216D051
:1013500004F58064A04214D004F58064A04212D049
:1013600004F50064A0423FF43DAF0A243DE70124A8
:101370003BE7022439E7032437E7042435E7052453
:1013800033E7062431E707242FE703B0F0BD00BFA1
:101390000004005800440258000002580AB181615C
:1013A0007047090481617047436901EA030221EA39
:1013B000030141EA0241816170470000134BDB6881
:1013C00013F0040F07D1114BDB6803F007038342CE
:1013D0001AD00120704710B50C4AD36823F00703D8
:1013E0000343D360FFF770FB0446084B5B6813F4BC
:1013F000005F07D1FFF768FB001BB0F57A7FF4D9D7
:10140000012000E0002010BD002070470048025875
:10141000002800F0D58238B50446036813F0010FA8
:1014200025D0A04A136903F03803926A102B15D017
:10143000182B0FD06368B3F5803F3FD0002B53D1FA
:10144000984B1A6822F480321A601A6822F48022BB
:101450001A6038E002F00302022AEBD1914B1B68BC
:1014600013F4003F03D06368002B00F0AB822368C5
:1014700013F0020F00F088808A4A1369926A13F011
:1014800038035AD0182B55D0E368002B00F0A98000
:1014900084490A6822F0190213430B60FFF714FB1A
:1014A0000546804B1B6813F0040F40F09180FFF756
:1014B0000BFB401B0228F4D903208AE2794A136807
:1014C00043F48033136063682BB3FFF7FDFA0546DE
:1014D000744B1B6813F4003FC9D1FFF7F5FA401BAA
:1014E0006428F5D9032074E2B3F5A02F09D06D4B21
:1014F0001A6822F480321A601A6822F480221A6074
:10150000E1E7684B1A6842F480221A601A6842F4D4
:1015100080321A60D7E7FFF7D7FA0546614B1B68A0
:1015200013F4003FA3D0FFF7CFFA401B6428F5D98E
:1015300003204EE212F0030FA6D15A4B1B6813F0A2
:10154000040F03D0E368002B00F03E82554A136875
:1015500023F01903E1680B431360FFF7B5FA054662
:10156000504B1B6813F0040F06D1FFF7ADFA401B78
:101570000228F5D903202CE24A4A536823F0FE439F
:10158000216943EA01635360236813F0100F51D0BF
:10159000444A136903F03803926A082B39D0182B98
:1015A00033D0E369002B69D03E4A136843F08003CF
:1015B0001360FFF789FA05463A4B1B6813F4807FE6
:1015C00053D1FFF781FA401B0228F5D9032000E22E
:1015D000344A536823F0FE43216943EA01635360B0
:1015E000D2E7304A136823F001031360FFF76CFA67
:1015F00005462C4B1B6813F0040FC5D0FFF764FAA7
:10160000401B0228F5D90320E3E102F00302012A7E
:10161000C7D1244B1B6813F4807F03D0E369802B70
:1016200040F0D4811F4AD36823F07C53216A43EAF7
:101630000163D360236813F0080F49D06369002B5E
:1016400032D0184A536F43F001035367FFF73CFA57
:101650000546144B5B6F13F0020F39D1FFF734FAD4
:10166000401B0228F5D90320B3E10E4AD36823F0CA
:101670007C53216A43EA0163D360DBE7094A1368BC
:1016800023F080031360FFF71FFA0546054B1B6824
:1016900013F4807FCED0FFF717FA401B0228F5D94C
:1016A000032096E1004402589D4A536F23F0010342
:1016B0005367FFF709FA0546994B5B6F13F0020F6A
:1016C00006D0FFF701FA401B0228F5D9032080E17C
:1016D000236813F0200F29D0A3699BB1904A1368A7
:1016E00043F480531360FFF7EFF905468C4B1B68FA
:1016F00013F4005F1AD1FFF7E7F9401B0228F5D970
:10170000032066E1864A136823F480531360FFF7D1
:10171000DBF90546824B1B6813F4005F06D0FFF728
:10172000D3F9401B0228F5D9032052E1236813F0B6
:10173000040F21D1636A002B00F04A81784A1269B4
:1017400002F03802182A00F0F180022B75D0744A9A
:10175000136823F080731360FFF7B6F90446704BEB
:101760001B6813F0007F00F0D880FFF7ADF9001B75
:101770000228F4D903202CE16A4A136843F48073E9
:101780001360FFF7A1F90546664B1B6813F4807FD1
:1017900006D1FFF799F9401B6428F5D9032018E119
:1017A000A368012B0AD00BBB5D4B1A6F22F001021C
:1017B0001A671A6F22F004021A6704E0584A136F7E
:1017C00043F001031367A36833B3FFF77DF90546C0
:1017D000534B1B6F13F0020FACD1FFF775F9401B91
:1017E00041F288339842F3D90320F2E0052B09D067
:1017F0004B4B1A6F22F001021A671A6F22F0040293
:101800001A67E0E7464B1A6F42F004021A671A6F34
:1018100042F001021A67D6E7FFF756F90546404B3A
:101820001B6F13F0020F85D0FFF74EF9401B41F2FA
:1018300088339842F3D90320CBE0394A136823F068
:1018400080731360FFF740F90546354B1B6813F0B2
:10185000007F06D0FFF738F9401B0228F5D9032096
:10186000B7E02F4B996A304A0A40A16AE06A41EA20
:1018700000110A439A62226B013AC2F30802616BBB
:101880000139490289B20A43A16B0139090401F403
:10189000FE010A43E16B0139090601F0FE410A43EA
:1018A0001A63DA6A22F00102DA625A6B6FF3CF022E
:1018B000A16C42EAC1025A63DA6A22F00C02216C7E
:1018C0000A43DA62DA6A22F00202616C0A43DA62DF
:1018D000DA6A42F48032DA62DA6A42F40032DA62B8
:1018E000DA6A42F48022DA62DA6A42F00102DA62EB
:1018F0001A6842F080721A60FFF7E6F80446084B57
:101900001B6813F0007F06D1FFF7DEF8001B0228EA
:10191000F5D903205DE000205BE0002059E000BF26
:1019200000440258004802580CFCFFFF30498A6A04
:10193000086B012B4ED002F00303A16A8B424BD1FE
:10194000C2F30512E36A9A4248D1C0F30802236B3E
:10195000013B9A4244D1C0F34622636B013B9A4259
:1019600040D1C0F30642A36B013B9A423CD1C0F385
:101970000660E36B013B984238D11D4B5B6BC3F3B0
:10198000CC03A26C9A4201D1002022E0184AD36A0B
:1019900023F00103D362FFF797F80546FFF794F8A9
:1019A000A842FBD0124A536B6FF3CF03A16C43EAFA
:1019B000C1035363D36A43F00103D362002008E0FC
:1019C00001207047012004E0012002E0012000E036
:1019D000002038BD0120FCE70120FAE70120F8E7EC
:1019E0000120F6E70120F4E70120F2E70120F0E70B
:1019F00000440258754B1B6903F03803102B00F0AC
:101A0000DE80182B0FD0002B40F0DB806F4B1B6863
:101A100013F0200F00F0D7806C4B1B68C3F3C10399
:101A20006B48D840704710B4684B9A6A02F00302C2
:101A30009C6AC4F30510D96A01F001015B6BC3F322
:101A4000CC0301FB03F307EE903AF8EE677A14F447
:101A50007C7F77D0012A4AD0022A76D0002A40F033
:101A600091805A4B1B6813F0200F23D057490A6806
:101A7000C2F3C102564BD34007EE103AF8EE476A64
:101A800007EE100AB8EE476A86EE867A0B6BC3F350
:101A9000080306EE903AF8EE666A9FED4E6A67EE2E
:101AA000867A76EEA77AF7EE006A77EEA67A27EEC8
:101AB000277A38E007EE100AF8EE476A9FED466A8B
:101AC00086EE267A414B1B6BC3F3080306EE903A71
:101AD000F8EE666A9FED3F6A67EE867A76EEA77A41
:101AE000F7EE006A77EEA67A27EE277A1BE007EE7C
:101AF000100AF8EE476A9FED396A86EE267A334B74
:101B00001B6BC3F3080306EE903AF8EE666A9FED8E
:101B1000316A67EE867A76EEA77AF7EE006A77EE9C
:101B2000A67A27EE277A294B1B6BC3F34623013392
:101B300007EE903AF8EE677AC7EE276AFCEEE67A8F
:101B400017EE900A5DF8044B704707EE100AF8EEA6
:101B5000476A9FED236A86EE267A1C4B1B6BC3F304
:101B6000080306EE903AF8EE666A9FED1A6A67EE91
:101B7000867A76EEA77AF7EE006A77EEA67A27EEF7
:101B8000277AD0E707EE100AF8EE476A9FED136A4E
:101B900086EE267A0D4B1B6BC3F3080306EE903AD4
:101BA000F8EE666A9FED0B6A67EE867A76EEA77AA4
:101BB000F7EE006A77EEA67A27EE277AB3E70948B0
:101BC0007047094870470248704700BF00440258F8
:101BD0000090D003000000390024744C0024744AA3
:101BE0000024F44A00127A0000093D00002800F0A9
:101BF000328170B50D4604469B4B1B6803F00F0302
:101C00008B420BD2984A136823F00F030B431360E7
:101C1000136803F00F038B4240F01F81236813F019
:101C2000040F0CD02269914B9B6903F070039A4218
:101C300005D98E498B6923F070031A438A612368A2
:101C400013F0080F0CD06269884BDB6903F0700356
:101C50009A4205D98549CB6923F070031A43CA61BA
:101C6000236813F0100F0CD0A269804BDB6903F4DA
:101C7000E0639A4205D97D49CB6923F4E0631A43B6
:101C8000CA61236813F0200F0CD0E269774B1B6AFE
:101C900003F070039A4205D974490B6A23F070036C
:101CA0001A430A62236813F0020F0CD0E2686F4BEC
:101CB0009B6903F00F039A4205D96C498B6923F0A5
:101CC0000F031A438A61236813F0010F41D0674A5A
:101CD000936923F47063A1680B4393616368022BDB
:101CE0000AD0032B27D0012B2CD0604A126812F0A7
:101CF000040F06D10120ADE0126812F4003F00F09D
:101D0000AE805A490A6922F0070213430B61FEF7BD
:101D1000DBFE0646554B1B6903F038036268B3EBE4
:101D2000C20F16D0FEF7D0FE801B41F288339842D6
:101D3000F0D903208EE04D4A126812F0007FE0D106
:101D4000012087E0494A126812F4807FD9D101202E
:101D500080E0236813F0020F0CD0E268434B9B69CC
:101D600003F00F039A4205D240498B6923F00F0319
:101D70001A438A613C4B1B6803F00F03AB420AD93C
:101D8000394A136823F00F032B431360136803F0E1
:101D90000F03AB4265D1236813F0040F0CD0226906
:101DA000324B9B6903F070039A4205D22F498B692D
:101DB00023F070031A438A61236813F0080F0CD0D4
:101DC00062692A4BDB6903F070039A4205D2274906
:101DD000CB6923F070031A43CA61236813F0100F14
:101DE0000CD0A269214BDB6903F4E0639A4205D26F
:101DF0001E49CB6923F4E0631A43CA61236813F0D8
:101E0000200F0CD0E269194B1B6A03F070039A4251
:101E100005D216490B6A23F070031A430A62FFF7D2
:101E2000E9FD12498B69C3F30323114AD35C03F024
:101E30001F03D8408B6903F00F03D35C03F01F032B
:101E400020FA03F30B4A13600B4B18600B4B186816
:101E5000FEF74EFD70BD012070470120FAE701201A
:101E6000F8E70120F6E700BF0020005200440258C6
:101E7000385F000800000020040000200C00002053
:101E800008B5FFF7B7FD0B4A9369C3F303230A496B
:101E9000CB5C03F01F0320FA03F3926902F00F02F8
:101EA000885C00F01F0023FA00F0044A1060044A26
:101EB000136008BD00440258385F0008000000208D
:101EC0000400002008B5FFF7DBFF054BDB69C3F317
:101ED0000213044AD35C03F01F03D84008BD00BFBF
:101EE00000440258385F000808B5FFF7C9FF054BEA
:101EF000DB69C3F30223044AD35C03F01F03D84019
:101F000008BD00BF00440258385F00083F2303604B
:101F1000114B1A6902F0070242609A6902F470627A
:101F200082609A6902F00F02C2609A6902F0700240
:101F30000261DA6902F070024261DA6902F4E06279
:101F400082611B6A03F07003C361044B1B6803F0DA
:101F50000F030B60704700BF00440258002000527E
:101F6000404B9B6A03F00303032B79D070B5054601
:101F70000E463C4A136823F080631360FEF7A4FD0D
:101F80000446384B1B6813F0006F06D0FEF79CFD2B
:101F9000031B022BF5D9032070BD324B9A6A22F441
:101FA0007C32296842EA01329A626A68013AC2F3D5
:101FB0000802A9680139490289B20A43E96801396E
:101FC000090401F4FE010A4329690139090601F0F7
:101FD000FE410A439A63DA6A22F0C00269690A4341
:101FE000DA62DA6A22F02002A9690A43DA62DA6A5E
:101FF00022F01002DA62DA6B6FF3CF02E96942EA8B
:10200000C102DA63DA6A42F01002DA62C6B91A462D
:10201000DB6A43F40023D362124A136843F08063FF
:102020001360FEF751FD04460E4B1B6813F0006F62
:1020300014D1FEF749FD001B0228F5D90320ABE7B8
:10204000012E05D0074AD36A43F40013D362E3E7B5
:10205000044AD36A43F48013D362DDE700209BE790
:102060000120704700440258404B9B6A03F0030371
:10207000032B79D070B505460E463C4A136823F011
:1020800080531360FEF720FD0446384B1B6813F0A5
:10209000005F06D0FEF718FD031B022BF5D90320C5
:1020A00070BD324B9A6A22F07C72296842EA015272
:1020B0009A626A68013AC2F30802A96801394902C2
:1020C00089B20A43E9680139090401F4FE010A43AF
:1020D00029690139090601F0FE410A431A64DA6AE6
:1020E00022F4406269690A43DA62DA6A22F4007211
:1020F000A9690A43DA62DA6A22F48072DA625A6CF7
:102100006FF3CF02E96942EAC1025A64DA6A42F423
:102110008072DA62C6B91A46DB6A43F48003D3627E
:10212000124A136843F080531360FEF7CDFC044657
:102130000E4B1B6813F0005F14D1FEF7C5FC001BAB
:102140000228F5D90320ABE7012E05D0074AD36A50
:1021500043F08073D362E3E7044AD36A43F4000395
:10216000D362DDE700209BE701207047004402585E
:10217000F8B50446036813F0006F2FD0436EB3F533
:10218000001F25D015D8E3B1B3F5801F0ED1022171
:102190000830FFF7E5FE054675BB934A136D23F43F
:1021A0004013616E0B431365002619E00126354686
:1021B00016E0B3F5401F01D10025EEE701263546B4
:1021C0000EE0894AD36A43F40033D3620025E4E782
:1021D00002212830FFF748FF0546DDE70026354697
:1021E000236813F4807F29D0A36D042B22D8DFE865
:1021F00003F005131A0A0A002E46F1E77A4AD36A59
:1022000043F40033D362C5B9774A136D23F0070353
:10221000A16D0B43136511E0002104F10800FFF7E5
:102220009FFE0546EFE7002104F12800FFF71CFFA1
:102230000546E8E70126354600E02E46236813F4FC
:10224000806F2DD0D4F8A430B3F5800F3DD00DD8D9
:10225000C3B1B3F5001F06D1002104F10800FFF758
:102260007FFE054613E00126354619E0B3F5000F61
:102270000DD0B3F5200F0AD0B3F5C00F07D001265B
:1022800035460DE0584AD36A43F40033D3621DBB90
:10229000554A936D23F46003D4F8A4100B4393655F
:1022A000236813F4006F37D0D4F8A830B3F1007F5F
:1022B0005ED016D80BB3B3F1807F0FD1002104F1AB
:1022C0000800FFF74DFE05461CE0002104F1280040
:1022D000FFF7CAFE0546DAE72E46E1E70126354656
:1022E0001AE0B3F1806F0DD0B3F1A06F0AD0B3F153
:1022F000407F07D0012635460EE03B4AD36A43F4BF
:102300000033D362002D3AD1374A936D23F0E06356
:10231000D4F8A8100B439365236813F0007F13D003
:10232000E36C202B35D02FD833B1102B29D12E4A76
:10233000D36A43F40033D36295BB2B4AD36C23F0AA
:102340003003E16C0B43D364236813F4805F4ED0F9
:10235000E36DB3F5005F3FD027D87BB3B3F5805F63
:1023600020D1002104F10800FFF7FAFD05462AE01C
:10237000002104F12800FFF777FE0546C2E72E464C
:10238000CAE701263546DFE7302BD5D00126354692
:10239000DAE7022104F10800FFF7E2FD0546CBE78A
:1023A0002E46D1E70126354621E0B3F5405F0AD03D
:1023B000B3F5804F07D00126354618E00A4AD36AA4
:1023C00043F40033D3628DB9074A136D23F4E0431D
:1023D000E16D0B4313650AE0002104F12800FFF7CB
:1023E00043FE0546EFE700BF004402582E4623682F
:1023F00013F4005F17D0236EB3F5003F4FD042D8DF
:1024000043B1B3F5803F3BD1012104F10800FFF750
:10241000A7FD0546002D49D1924A136D23F4E02310
:10242000216E0B431365236813F4804F19D0D4F841
:10243000AC30B3F1005F4AD03DD843B1B3F1805F17
:1024400036D1012104F10800FFF78AFD0546002D71
:1024500044D1844A936D23F0E043D4F8AC100B438D
:102460009365236813F4004F47D0E36EB3F1805FA8
:1024700036D0B3F1005F4BD0BBB3012635463CE00C
:1024800001263546CFE7B3F5802FC3D0B3F5A02F93
:10249000C0D0B3F5403FBDD001263546C3E701218A
:1024A00004F12800FFF7E0FD0546B3E72E46BAE742
:1024B00001263546D5E7B3F1804FC8D0B3F1A04F20
:1024C000C5D0B3F1405FC2D001263546C9E701212E
:1024D00004F12800FFF7C8FD0546B8E72E46C0E71F
:1024E000604AD36A43F40033D362C5B95D4A136DC1
:1024F00023F04053E16E0B431365236813F0807F94
:102500001CD0A36C032B44D8DFE803F0100B3C1065
:10251000012104F10800FFF723FD0546E5E72E46FB
:10252000EBE7504AD36A43F40033D362A5BB4D4A6C
:10253000D36C23F00303A16C0B43D364236813F41F
:10254000800F2BD1236813F0010F00F0A980A36F37
:10255000282B00F2A380DFE803F091A1A1A1A1A1A3
:10256000A1A18BA1A1A1A1A1A1A19AA1A1A1A1A178
:10257000A1A191A1A1A1A1A1A1A191A1A1A1A1A16B
:10258000A1A19100022104F10800FFF7E9FC054632
:10259000CCE701263546D1E72E46CFE7324A13680D
:1025A00043F480731360FEF78FFA07462E4B1B68C7
:1025B00013F4807F05D1FEF787FAC01B6428F5D994
:1025C0000325002D4AD1274B1B6FD4F8B020534070
:1025D00013F4407F0CD0234B1A6F22F44072196F12
:1025E00041F480311967196F21F4803119671A6736
:1025F000D4F8B030B3F5807F15D08DBBD4F8B030AF
:1026000003F44072B2F5407F1ED0164A136923F4DA
:102610007C53136113490B6FD4F8B020C2F30B0243
:1026200013430B678EE7FEF74FFA07460D4B1B6F00
:1026300013F0020FE1D1FEF747FAC01B41F28833D5
:102640009842F3D90325D8E70648026922F47C5260
:10265000064901EA131313430361DBE72E4671E7D2
:102660002E466FE70044025800480258CFFFFF0093
:10267000012104F10800FFF773FC0546E5B9B14AF2
:10268000536D23F03803A16F0B43536508E001211C
:1026900004F12800FFF7E8FC0546EFE70126354680
:1026A000236813F0020F17D0636F052B29D8DFE8DA
:1026B00003F00B05210B0B0B2E46F1E7012104F172
:1026C0000800FFF74DFC0546F5B99E4A536D23F00F
:1026D0000703616F0B435365236813F0040F26D083
:1026E000D4F89030052B00F2D680DFE803F0150F08
:1026F000CD151515012104F12800FFF7B5FC05469D
:10270000E2E701263546E7E72E46E5E7012104F139
:102710000800FFF725FC0546002D40F0BF80894AE0
:10272000936D23F00703D4F890100B43936523684F
:1027300013F0200F1DD0D4F88C30B3F1005F00F0FF
:10274000C18000F2B0804BB1B3F1805F40F0A8804F
:10275000002104F10800FFF703FC0546002D40F0BE
:10276000B880784A536D23F0E043D4F88C100B43C3
:102770005365236813F0400F1DD0D4F89830B3F59B
:10278000006F00F0BA8000F2A9804BB1B3F5806F02
:1027900040F0A180002104F10800FFF7E1FB0546AD
:1027A000002D40F0B180674A936D23F4E053D4F8D4
:1027B00098100B439365236813F0800F1DD0D4F855
:1027C0009C30B3F5804F00F0B38000F2A2804BB193
:1027D000B3F5005F40F09A80002104F10800FFF794
:1027E000BFFB0546002D40F0AA80564A936D23F4A6
:1027F0006043D4F89C100B439365236813F0080FD3
:102800000DD0D4F88030B3F5805F00F09D804D4A44
:10281000536D23F44053D4F880100B435365236861
:1028200013F0100F0DD0D4F89430B3F5807F00F082
:102830009580444A936D23F44073D4F894100B436D
:102840009365236813F4002F00F09D80D4F8A03026
:10285000B3F5803F00F08C80B3F5003F08D0002B2B
:1028600040F08D80002104F10800FFF779FB054658
:10287000002D40F08780334A936D23F44033D4F821
:10288000A0100B4393657EE0012104F12800FFF7BF
:10289000EBFB054640E70126354648E72E4646E76E
:1028A0000126354665E7B3F1804F3FF457AFB3F1EA
:1028B000A04F3FF453AFB3F1405F3FF44FAF012659
:1028C000354656E7022104F12800FFF7CDFB054607
:1028D00044E72E464DE7012635466CE7B3F5805FA9
:1028E0003FF45EAFB3F5A05F3FF45AAFB3F5406F6E
:1028F0003FF456AF012635465DE7022104F128007A
:10290000FFF7B2FB05464BE72E4654E70126354656
:1029100073E7B3F5004F3FF465AFB3F5204F3FF4D5
:1029200061AFB3F5C04F3FF45DAF0126354664E7B4
:10293000022104F12800FFF797FB054652E72E46D7
:102940005BE700BF00440258022104F12800FFF7B2
:102950008BFB00283FF45BAF012658E7022104F10E
:102960002800FFF781FB00283FF463AF012660E7F2
:10297000022104F12800FFF777FB054678E70126DE
:10298000354600E02E46236813F4802F24D0D4F877
:102990008430B3F5001F14D0B3F5401F07D0B3F552
:1029A000801F15D17C4AD36A43F40033D36295B9B2
:1029B000794A536D23F44013D4F884100B435365C4
:1029C0000AE0012104F12800FFF74EFB0546EEE77F
:1029D0000126354600E02E46236813F4803F06D0DA
:1029E000236DCBB1B3F5803F24D001263546236853
:1029F00013F0005F27D1236813F4003F3DD0E36F4D
:102A0000B3F5807F2BD027D9B3F5007F2CD0B3F559
:102A1000407F29D0012630E05F4AD36A43F4003377
:102A2000D36275B95C4AD36C23F48033216D0B43B8
:102A3000D364DCE7022104F10800FFF791FA0546B0
:102A4000EFE72E46D3E7022104F12800FFF70CFB45
:102A50000028D0D00126CEE733B101260DE04E4A42
:102A6000D36A43F40033D362002D5CD14A4A536DDC
:102A700023F44073E16F0B435365236813F4801F05
:102A800006D0454A136D23F00043216F0B431365B5
:102A9000236813F4001F06D03F4A136D23F08073A0
:102AA000A16E0B431365236813F0804F09D03A4B96
:102AB0001A6922F400421A611A69D4F8B4100A4360
:102AC0001A612368002B06DA334AD36C23F0405393
:102AD000616D0B43D364236813F4000F07D02E4AB3
:102AE000536D23F44003D4F888100B435365636897
:102AF00013F0010F19D1636813F0020F1ED1636840
:102B000013F0040F23D1636813F0080F28D1636812
:102B100013F0100F2DD1636813F0200F32D106B1DE
:102B200001263046F8BD2E46A7E7002104F1080033
:102B3000FFF716FA0028DED00646DCE7012104F193
:102B40000800FFF70DFA0028D9D00646D7E7022182
:102B500004F10800FFF704FA0028D4D00646D2E7B3
:102B6000002104F12800FFF77FFA0028CFD00646A5
:102B7000CDE7012104F12800FFF776FA0028CAD03A
:102B80000646C8E7022104F12800FFF76DFA002885
:102B9000C5D00126C5E700BF0044025808B5FFF7BD
:102BA0006FF9054B1B6AC3F30213044AD35C03F0AD
:102BB0001F03D84008BD00BF00440258385F00081A
:102BC00010B4794B9A6A9C6AC4F3053CD96AC1F384
:102BD0000011DB6BC3F3CC0301FB03F314F47C3F64
:102BE00000F0DD8002F0030207EE903AF8EE677A1B
:102BF000012A4BD0022A00F09880002A40F0B280CF
:102C0000694B1B6813F0200F23D067490A68C2F391
:102C1000C102664BD34007EE103AF8EE476A07EE62
:102C200010CAB8EE476A86EE867A8B6BC3F3080348
:102C300006EE903AF8EE666A9FED5D6A67EE867A78
:102C400076EEA77AF7EE006A77EEA67A27EE277A75
:102C500038E007EE10CAF8EE476A9FED566A86EE36
:102C6000267A514B9B6BC3F3080306EE903AF8EEBD
:102C7000666A9FED4F6A67EE867A76EEA77AF7EE80
:102C8000006A77EEA67A27EE277A1BE007EE10CAD5
:102C9000F8EE476A9FED486A86EE267A424B9B6BB8
:102CA000C3F3080306EE903AF8EE666A9FED406AB9
:102CB00067EE867A76EEA77AF7EE006A77EEA67A66
:102CC00027EE277A384A936BC3F3462307EE903AF0
:102CD000F8EE677AF7EE006A77EEA67A87EE276A53
:102CE000BCEEC66A80ED006A936BC3F3064307EE41
:102CF000903AF8EE677A77EEA67A87EE276ABCEE0E
:102D0000C66A80ED016A936BC3F3066307EE903ADF
:102D1000F8EE677A77EEA67AC7EE276AFCEEE66AE7
:102D2000C0ED026A5DF8044B704707EE10CAF8EE7A
:102D3000476A9FED226A86EE267A1B4B9B6BC3F394
:102D4000080306EE903AF8EE666A9FED196A67EEA0
:102D5000867A76EEA77AF7EE006A77EEA67A27EE05
:102D6000277AAFE707EE10CAF8EE476A9FED126ABE
:102D700086EE267A0C4B9B6BC3F3080306EE903A63
:102D8000F8EE666A9FED0A6A67EE867A76EEA77AB3
:102D9000F7EE006A77EEA67A27EE277A92E700230D
:102DA000036043608360BDE7004402580090D00395
:102DB000000000390024744C0024744A0024F44AB2
:102DC00010B4794B9A6A9C6AC4F3055CD96AC1F362
:102DD00000215B6CC3F3CC0301FB03F314F07C7F95
:102DE00000F0DD8002F0030207EE903AF8EE677A19
:102DF000012A4BD0022A00F09880002A40F0B280CD
:102E0000694B1B6813F0200F23D067490A68C2F38F
:102E1000C102664BD34007EE103AF8EE476A07EE60
:102E200010CAB8EE476A86EE867A0B6CC3F30803C5
:102E300006EE903AF8EE666A9FED5D6A67EE867A76
:102E400076EEA77AF7EE006A77EEA67A27EE277A73
:102E500038E007EE10CAF8EE476A9FED566A86EE34
:102E6000267A514B1B6CC3F3080306EE903AF8EE3A
:102E7000666A9FED4F6A67EE867A76EEA77AF7EE7E
:102E8000006A77EEA67A27EE277A1BE007EE10CAD3
:102E9000F8EE476A9FED486A86EE267A424B1B6C35
:102EA000C3F3080306EE903AF8EE666A9FED406AB7
:102EB00067EE867A76EEA77AF7EE006A77EEA67A64
:102EC00027EE277A384A136CC3F3462307EE903A6D
:102ED000F8EE677AF7EE006A77EEA67A87EE276A51
:102EE000BCEEC66A80ED006A136CC3F3064307EEBE
:102EF000903AF8EE677A77EEA67A87EE276ABCEE0C
:102F0000C66A80ED016A136CC3F3066307EE903A5C
:102F1000F8EE677A77EEA67AC7EE276AFCEEE66AE5
:102F2000C0ED026A5DF8044B704707EE10CAF8EE78
:102F3000476A9FED226A86EE267A1B4B1B6CC3F311
:102F4000080306EE903AF8EE666A9FED196A67EE9E
:102F5000867A76EEA77AF7EE006A77EEA67A27EE03
:102F6000277AAFE707EE10CAF8EE476A9FED126ABC
:102F700086EE267A0C4B1B6CC3F3080306EE903AE0
:102F8000F8EE666A9FED0A6A67EE867A76EEA77AB1
:102F9000F7EE006A77EEA67A27EE277A92E700230B
:102FA000036043608360BDE7004402580090D00393
:102FB000000000390024744C0024744A0024F44AB0
:102FC0007047000090F83D30DBB2012B42D1022364
:102FD00080F83D300268D36843F00103D360036892
:102FE0001E4AB3F1804F18BF934225D0A2F57C4210
:102FF000934221D002F5806293421DD002F5806297
:10300000934219D002F57842934215D0A2F56C4252
:10301000934211D002F5943293420DD0A2F5C042F2
:10302000934209D002F58062934205D01A6842F0BB
:1030300001021A60002070479968094A0A40062A6E
:1030400018BFB2F5803F07D01A6842F001021A603B
:1030500000207047012070470020704700000140A9
:1030600007000100704770477047704770B504460D
:103070000368DE681D6915F0020F10D016F0020F0C
:103080000DD06FF002021A610123037703689B6978
:1030900013F0030F64D0FFF7E6FF0023237715F04A
:1030A000040F12D016F0040F0FD023686FF0040243
:1030B0001A610223237723689B6913F4407F55D05C
:1030C0002046FFF7D0FF0023237715F0080F12D01A
:1030D00016F0080F0FD023686FF008021A6104235E
:1030E00023772368DB6913F0030F46D02046FFF7F0
:1030F000BAFF0023237715F0100F12D016F0100F2F
:103100000FD023686FF010021A6108232377236819
:10311000DB6913F4407F37D02046FFF7A4FF00237C
:10312000237715F0010F02D016F0010F33D115F4FB
:10313000025F02D016F0800F35D115F4807F02D0E7
:1031400016F0800F37D115F0400F02D016F0400F67
:1031500039D115F0200F02D016F0200F3BD170BDF1
:10316000FFF780FF2046FFF77FFF96E72046FFF737
:1031700079FF2046FFF778FFA5E72046FFF772FFAB
:103180002046FFF771FFB4E72046FFF76BFF2046AC
:10319000FFF76AFFC3E723686FF001021A61204658
:1031A000FDF7B0F9C3E723686FF402521A612046B5
:1031B00000F0E3F8C1E723686FF480721A612046DB
:1031C00000F0DCF8BFE723686FF040021A61204688
:1031D000FFF74BFFBDE723686FF020021A6120461E
:1031E00000F0CAF8BBE7000030B50368424A9042DD
:1031F00014BF4FF0000E4FF0010EB0F1804F14BF1E
:1032000072464EF00102AAB93C4CA04214BF002401
:1032100001243B4DA8420DD064B904F1804404F56B
:103220008234A04214BF0024012405F50065A842A1
:1032300000D01CB123F070034C68234362BB2F4ABB
:10324000904214BF002201222D4CA04224D01ABB70
:1032500002F1804202F58232904214BF0022012224
:1032600004F50064A04217D0B2B9264A904214BFB8
:103270000022012204F59A34A0420DD062B9224AFC
:10328000904214BF0022012204F50064A04203D042
:1032900012B91E4A904204D123F4407CCB6843EA21
:1032A0000C0323F080034A69134303608A68C262F7
:1032B0000A688262164A904214BF73464EF00103B8
:1032C00063B9104B984214BF0023012302F57052DA
:1032D000904203D013B90F4B984201D10B6903639D
:1032E00001234361036913F0010F03D0036923F045
:1032F0000103036130BD00BF000001400008004031
:10330000000400400044014000E0004000E40040B0
:10331000000401400048014060B310B5044690F835
:103320003D3013B3022384F83D30214651F8040B9D
:10333000FFF75AFF012384F8483084F83E3084F8C0
:103340003F3084F8403084F8413084F8423084F8CB
:10335000433084F8443084F8453084F8463084F8AB
:10336000473084F83D30002010BD80F83C30FFF736
:1033700027FED7E70120704770477047704700006D
:10338000026852E8003F23F4907342E800310029BC
:10339000F6D1026802F1080353E8001F0D4B0B4001
:1033A000083242E800310029F3D1C36E012B06D068
:1033B0002023C0F88C300023C3664367704702683F
:1033C00052E8003F23F0100342E800310029F6D113
:1033D000EEE700BFFEFFFFEF70B586B004468368DE
:1033E0000269134342691343C269134301680868C1
:1033F000904A02401A430A602268536823F44053FB
:10340000E1680B435360A16922688B4B9A4201D05B
:10341000236A19439068894B03400B4393602268E9
:10342000D36A23F00F03616A0B43D3622368844A93
:10343000934229D0834A934200F09480824A934277
:1034400000F0AA80814A934200F0C080804A9342F3
:1034500000F0D6807F4A934200F008817E4A934272
:1034600000F02D817D4A934200F040817C4A9342D6
:1034700000F053817B4A934200F078816E4A934278
:1034800000F09D81802233E0774A526D02F03802CD
:10349000282A65D8DFE812F029006400640064007F
:1034A0006400640064006400AB01640064006400B4
:1034B00064006400640064002B0064006400640025
:1034C00064006400640064005E00640064006400E2
:1034D00064006400640064006000640064006400D0
:1034E00064006400640064006200012200E00822BD
:1034F00051498B4200F09481E069B0F5004F00F033
:103500000A82202A00F26182202A00F2AE82DFE8DD
:1035100012F063027D02AC02AC028002AC02AC028B
:10352000AC028502AC02AC02AC02AC02AC02AC0252
:10353000AC028A02AC02AC02AC02AC02AC02AC023D
:10354000AC02AC02AC02AC02AC02AC02AC02AC020B
:10355000AC0296021022CBE72022C9E74022C7E73F
:103560008022C5E7404A526D02F00702052A11D8B1
:10357000DFE812F006003F0108000A000C000E0010
:103580000022B5E70822B3E71022B1E72022AFE717
:103590004022ADE78022ABE7334A526D02F00702CA
:1035A000052A11D8DFE812F00600270108000A00FA
:1035B0000C000E0000229BE7082299E7102297E7F3
:1035C000202295E7402293E7802291E7264A526D18
:1035D00002F00702052A11D8DFE812F006000F01F9
:1035E00008000A000C000E00002281E708227FE795
:1035F00010227DE720227BE7402279E7802277E7CF
:10360000194A526D02F00702052A11D8DFE812F0BC
:103610000600F70008000A000C000E00002267E711
:10362000082265E7102263E7202261E740225FE776
:1036300080225DE7F369FFCF000C0058FFF4FF1113
:10364000001001400044004000480040004C004091
:10365000005000400014014000780040007C004011
:1036600000180140001C014000440258694A526D94
:1036700002F03802282A20D8DFE802F0151F1F1FA9
:103680001F1F1F1FC31F1F1F1F1F1F1F171F1F1FAE
:103690001F1F1F1F191F1F1F1F1F1F1F1B1F1F1F44
:1036A0001F1F1F1F1D00012222E7082220E71022F2
:1036B0001EE720221CE740221AE7802218E7554A1D
:1036C000526D02F00702052A0ED8DFE802F0039CD3
:1036D0000507090B00220BE7082209E7102207E77C
:1036E000202205E7402203E7802201E7494A526D84
:1036F00002F00702052A0ED8DFE802F0038705076B
:10370000090B0022F4E60822F2E61022F0E620225D
:10371000EEE64022ECE68022EAE63E4A526D02F0F6
:103720003802282A20D8DFE802F0151F1F1F1F1FAC
:103730001F1F721F1F1F1F1F1F1F171F1F1F1F1F4E
:103740001F1F191F1F1F1F1F1F1F1B1F1F1F1F1F93
:103750001F1F1D000122CBE60822C9E61022C7E682
:103760002022C5E64022C3E68022C1E6294A526DE6
:1037700002F03802282A20D8DFE802F0151F1F1FA8
:103780001F1F1F1F4E1F1F1F1F1F1F1F171F1F1F22
:103790001F1F1F1F191F1F1F1F1F1F1F1B1F1F1F43
:1037A0001F1F1F1F1D000122A2E60822A0E61022F3
:1037B0009EE620229CE640229AE6802298E602F5C8
:1037C0000E32926D02F00702052A0ED8DFE802F0F1
:1037D00003260507090B02228AE6082288E6102242
:1037E00086E6202284E6402282E6802280E60422C9
:1037F0007EE604227CE604227AE6042278E60422AD
:1038000076E6042274E6042272E6042270E60422BC
:103810006EE600BF00440258042269E6042267E60F
:10382000202A27D8022AC0F00E81023A1E2A00F26E
:103830000C81DFE812F026000A0156000A010A0195
:103840000A015B000A010A010A010A010A010A01D0
:103850000A0160000A010A010A010A010A010A01BB
:103860000A010A010A010A010A010A010A010A0100
:103870000A016C00402A02D14FF4004006E001200A
:10388000F4E0FFF78BF9002800F0E180626A7E4BDC
:1038900033F81220B0FBF2F3656805EB450199425D
:1038A00000F2D780B3EB053F00F2D5800026334607
:1038B0003146FCF70DFD090241EA106100026B0878
:1038C000C0182A46334641F10001FCF701FDA0F57E
:1038D00040726E4B9A4200F2C0802368D860304636
:1038E000C4E003A8FFF76CF90498CCE76846FFF73B
:1038F00067FA0198C7E7664B1B6813F0200F08D0E2
:10390000634B1B68C3F3C1036248D840BEE76248FB
:10391000BCE76048BAE7202A15D8202A00F29F8029
:10392000DFE802F015369D9D399D9D9D3E9D9D9D34
:103930009D9D9D9D439D9D9D9D9D9D9D9D9D9D9D11
:103940009D9D9D9D4F00402A06D001208EE0FEF7F0
:10395000B9FA002800F08580626A4B4B33F81230C8
:10396000B0FBF3F06268530803EB4003B3FBF2F3E0
:10397000A3F110014FF6EF72914274D89AB222F07F
:103980000F02C3F3420313432268D36000206DE0AB
:10399000FEF7AAFADDE703A8FFF712F90498D8E7C3
:1039A0006846FFF70DFA0198D3E7394B1B6813F00F
:1039B000200F08D0364B1B68C3F3C1033548D840ED
:1039C000CAE73548C8E73348C6E7402A02D14FF472
:1039D000004005E0012049E0FEF774FA00284FD0CE
:1039E000626A294B33F81230B0FBF3F0636800EBE6
:1039F0005300B0FBF3F0A0F110024FF6EF739A42C0
:103A000040D8236880B2D86000202FE0FEF76CFA1F
:103A1000E4E703A8FFF7D4F80498DFE76846FFF768
:103A2000CFF90198DAE71A4B1B6813F0200F08D082
:103A3000174B1B68C3F3C1031648D840D0E716489C
:103A4000CEE71448CCE7012010E001200EE0002072
:103A50000CE001200AE0012008E0012006E001203E
:103A600004E0002002E0012000E001200123A4F88E
:103A70006A30A4F8683000236367A36706B070BD9E
:103A80000020F3E70120F1E7485F0008FFFC0F008A
:103A9000004402580090D00300093D00836A13F0EF
:103AA000080F06D00268536823F40043816B0B4370
:103AB0005360836A13F0010F06D00268536823F441
:103AC0000033C16A0B435360836A13F0020F06D0C0
:103AD0000268536823F48033016B0B435360836A9D
:103AE00013F0040F06D00268536823F48023416B5F
:103AF0000B435360836A13F0100F06D0026893687B
:103B000023F48053C16B0B439360836A13F0200F3F
:103B100006D00268936823F40053016C0B43936052
:103B2000836A13F0400F0AD00268536823F48013AD
:103B3000416C0B435360436CB3F5801F0BD0836A19
:103B400013F0800F06D00268536823F40023C16C81
:103B50000B43536070470268536823F4C003816CC1
:103B60000B435360EBE72DE9F84305460E46174635
:103B70009946DDF820802B68DC6936EA04040CBF26
:103B800001240024BC423AD1B8F1FF3FF3D0FCF746
:103B90009BFFA0EB0900404534D8B8F1000F33D0AB
:103BA0002B681A6812F0040FE5D0B6F1400218BF76
:103BB0000122802EDFD0002ADDD0DA6912F0080F52
:103BC00011D1DA6912F4006FD5D04FF400621A6295
:103BD0002846FFF7D5FB2023C5F89030002385F851
:103BE000843003200CE008241C622846FFF7C8FB41
:103BF000C5F89040002385F88430012000E00020C3
:103C0000BDE8F8830320FBE70320F9E730B583B074
:103C100004460023C0F89030FCF756FF05462268A2
:103C2000126812F0080F10D123681B6813F0040FFC
:103C300028D12023C4F88830C4F88C300020E066F6
:103C4000206784F8840003B030BD6FF07E4300939A
:103C5000034600224FF400112046FFF784FF00289E
:103C6000E2D0226852E8003F23F0800342E80031AE
:103C70000029F6D12023C4F88830002384F884304A
:103C80000320E0E76FF07E4300932B4600224FF4C1
:103C900080012046FFF767FF0028CAD0226852E85B
:103CA000003F23F4907342E800310029F6D12268E6
:103CB00002F1080353E8003F23F00103083242E811
:103CC00000310029F3D12023C4F88C30002384F87C
:103CD00084300320B7E778B310B50446D0F88830B5
:103CE0000BB32423C4F888302268136823F001033F
:103CF0001360A36AE3B92046FFF76EFB012811D0D9
:103D00002268536823F4904353602268936823F039
:103D10002A0393602268136843F00103136020466E
:103D2000FFF774FF10BD80F88430FCF795FDD8E7ED
:103D30002046FFF7B3FEDEE701207047436E2BB944
:103D40000123A0F86A30A0F86830704730B40368E7
:103D50009A68C2F342629968490F094D6B5C1B0176
:103D6000084C615C93FBF1F3A0F86A30AB5C1B017B
:103D7000A25C93FBF2F3A0F8683030BC704700BF40
:103D8000685F0008605F000890F88430012B18D04D
:103D9000012380F884302423C0F8883003681A682F
:103DA000196821F00101196022F0005200234366D6
:103DB00001680A602022C0F8882080F88430184604
:103DC00070470220704738B590F88430012B1DD021
:103DD0000446012380F884302423C0F88830036827
:103DE0001D681A6822F001021A600268936823F0C5
:103DF000604319439160FFF7A1FF23681D602023F2
:103E0000C4F88830002084F8840038BD0220FCE724
:103E100038B590F88430012B1DD00446012380F87A
:103E200084302423C0F8883003681D681A6822F0A3
:103E300001021A600268936823F06063194391607D
:103E4000FFF77CFF23681D602023C4F88830002022
:103E500084F8840038BD0220FCE708B54FF0E02369
:103E60001B6901F0D7FB012800D108BD00F0D2F991
:103E7000FBE70000EFF305832BB9064B186828B960
:103E800001221A6070476FF0050070474FF0FF3055
:103E9000704700BF84090020EFF3058373B90A4B14
:103EA0001B68012B0DD110B50024084BDC77064BA5
:103EB00002221A6001F00CF9204610BD6FF00500D7
:103EC00070474FF0FF3070478409002000ED00E09C
:103ED000F0B587B000240594EFF3058474BB68B394
:103EE00022B31568936903B918235C1E372C49D88F
:103EF000546814F0010F47D156696EB14FEA960C21
:103F000094682CB1D7685B2F02D9176907B1C6B97D
:103F10002CB14FF0FF340EE04FF0800CF0E7D46886
:103F20008CB9146994B14FF0FF3404E015460024B5
:103F300018234FF0800C012C0AD0ACB1059807B0C3
:103F4000F0BD0124F7E74FF0FF34F4E70024F2E777
:103F5000146992680292019400930B4662462946C6
:103F600001F048F80590E9E705AA019200930B4695
:103F70001FFA8CF2294601F078F80128DED00023E0
:103F80000593DBE70020DAE70020D8E708B5EFF378
:103F9000058333B908B9002008BD01F0FBF9002002
:103FA000FAE76FF00500F7E7034B0360034B0B6084
:103FB00080231360704700BF2809002028070020D5
:103FC000034B0360034B0B604FF480731360704727
:103FD000CC060020CC02002000F1080343604FF023
:103FE000FF328260C36003610023036070470023D7
:103FF0000361704743684B609A688A6051609960BA
:104000000861036801330360704730B40D68B5F18F
:10401000FF3F11D000F108031C465B681A68AA42F2
:10402000FAD963684B6099608C60616008610368CD
:104030000133036030BC70470469F2E703694168EB
:1040400082688A60416851605A68824206D00022C4
:1040500002611A68013A1A601868704782685A60EB
:10406000F5E7000082B0002301930D4B1B68B3F10C
:10407000FF3F08D04FF0500383F31188BFF36F8FD9
:10408000BFF34F8FFEE74FF0500383F31188BFF368
:104090006F8FBFF34F8F019B002BFCD002B0704796
:1040A0001000002008480068006880F308884FF07E
:1040B000000080F3148862B661B6BFF34F8FBFF380
:1040C0006F8F00DF00BF000008ED00E0DFF80C009C
:1040D000016841F4700101607047000088ED00E064
:1040E0004FF0807340F8043C21F0010140F8081CB7
:1040F000054B40F80C3C40F8202C6FF0020340F8D0
:10410000243C4438704700BF6540000800000000B0
:10411000074B19680868B0E8F04F80F30988BFF3CF
:104120006F8F4FF0000080F311887047AFF300806D
:10413000EC4A00204FF0500383F31188BFF36F8FD8
:10414000BFF34F8F0B4A136801331360012B00D06C
:1041500070474FF0E023D3F8043D13F0FF0FF7D082
:104160004FF0500383F31188BFF36F8FBFF34F8F6E
:10417000FEE700BF10000020094B1B6843B94FF059
:10418000500383F31188BFF36F8FBFF34F8FFEE7A8
:10419000013B034A13600BB983F31188704700BFDA
:1041A00010000020000000000000000000000000DF
:1041B000EFF30980BFF36F8F154B1A681EF0100FD5
:1041C00008BF20ED108A20E9F04F10602DE90900AA
:1041D0004FF0500080F31188BFF34F8FBFF36F8F04
:1041E00001F0FEF84FF0000080F3118809BC196857
:1041F0000868B0E8F04F1EF0100F08BFB0EC108A4E
:1042000080F30988BFF36F8F704700BFAFF3008062
:10421000EC4A002008B54FF0500383F31188BFF338
:104220006F8FBFF34F8F00F0ADFF28B14FF0E02349
:104230004FF08052C3F8042D002383F3118808BD8A
:104240004FF0E022002313619361054B1B68054981
:10425000A1FB03139B09013B5361072313617047C3
:1042600004000020D34D62104FF0E023D3F8002D5E
:104270003D4B9A421CD04FF0E023D3F8002D3B4B2E
:104280009A421ED030B583B0394B1A78D2B201921F
:10429000FF221A701B78DBB28DF803309DF80330D3
:1042A00003F05003334A1370334B07221A601BE0AC
:1042B0004FF0500383F31188BFF36F8FBFF34F8F1D
:1042C000FEE74FF0500383F31188BFF36F8FBFF306
:1042D0004F8FFEE7284A1368013B13609DF80330B7
:1042E0005B00DBB28DF803309DF8033013F0800FD4
:1042F000F0D1214B1B68032B08D04FF0500383F300
:104300001188BFF36F8FBFF34F8FFEE71B021A4A6E
:10431000136003F4E0631360019BDBB2144A137073
:104320004FF0E024D4F8203D43F47003C4F8203D5E
:10433000D4F8203D43F07043C4F8203DFFF780FFE0
:1043400000250E4B1D60FFF7C1FED4F8343F43F04B
:104350004043C4F8343FFFF7A5FE01F041F8FFF7F2
:1043600081FE284603B030BD71C20F4170C20F41BB
:1043700000E400E08C0900208809002010000020E3
:10438000EFF305830F2B0FD9114A9B5CDBB2114A67
:1043900012789A4208D94FF0500383F31188BFF383
:1043A0006F8FBFF34F8FFEE74FF0E023D3F80C3D44
:1043B00003F4E063084A1268934208D94FF05003AF
:1043C00083F31188BFF36F8FBFF34F8FFEE7704702
:1043D000F0E300E08C09002088090020124A12F066
:1043E000070F1ED0D11D21F00701C1F570531344F2
:1043F0000A460E480260002141601344083B23F046
:1044000007030B48036059601960991A51601360E3
:10441000084B1960084B1960084B4FF000421A60B6
:1044200070474FF47053E4E7B0090020A80900205A
:10443000A40900209C090020A00900209009002068
:10444000164B1A461B688342FBD3516802EB010CE2
:10445000844509D0416800EB010C634509D0036035
:10446000904219D010607047406801445160104676
:10447000F0E710B40A4C2468A3420BD05B681944DF
:10448000416013681B680360904200D010605DF8C3
:10449000044B70470460F7E7704700BFA80900208D
:1044A000A409002038B5044600F05EFE384B1B68B6
:1044B000B3B1384B1B681C4250D1002C50D004F1D2
:1044C000080214F0070F02D022F007020832002A77
:1044D00055D0314B1B68934253D330490C6804E0EC
:1044E000FFF77CFFE5E721461C466368934202D252
:1044F0002368002BF7D1264B1B68A34243D00D68DD
:10450000083523680B6063689B1A102B10D9A0181C
:1045100010F0070F08D04FF0500383F31188BFF35A
:104520006F8FBFF34F8FFEE743606260FFF788FF36
:10453000626819490B689B1A0B60194909688B421C
:1045400001D217490B60134B1B68134363600023B0
:104550002360144A13680133136002E0002500E071
:10456000002500F09BFE15F0070F0ED04FF0500312
:1045700083F31188BFF36F8FBFF34F8FFEE70025E2
:10458000EFE70025EDE70025EBE7284638BD00BF43
:10459000A409002090090020A0090020A8090020FB
:1045A0009C09002098090020002834D038B5044622
:1045B000A0F1080550F8043C174A1268134208D1CC
:1045C0004FF0500383F31188BFF36F8FBFF34F8F0A
:1045D000FEE750F8081C41B14FF0500383F31188F7
:1045E000BFF36F8FBFF34F8FFEE723EA020340F85C
:1045F000043C00F0B9FD54F8041C084A13680B444D
:1046000013602846FFF71CFF054A13680133136047
:1046100000F044FE38BD704790090020A00900203A
:104620009409002010B50446FFF784FDA26BE36BEC
:104630009A4204D00024FFF79FFD204610BD0124BC
:10464000F9E710B50446FFF775FDA36B23B9012404
:10465000FFF792FD204610BD0024F9E770B504462F
:104660001546866B026C5AB903681BB100200136EF
:10467000A66370BD806800F0DDFF0023A360F6E74D
:104680006DB9406801F0A4FA6368226C134463605A
:10469000A268934219D3236863602846E7E7C0689D
:1046A00001F096FAE368226C51429B1AE36022689B
:1046B000934202D2A3680B44E360022D01D0002094
:1046C000D5E726B1013E0020D1E72846CFE70020FC
:1046D000CDE70346026C6AB110B50846D9681144AB
:1046E000D9609C68A14201D31968D960D96801F0EA
:1046F0006FFA10BD704738B50546FFF71BFD95F8FA
:10470000454064B201E0013C64B2002C0ADD6B6AF2
:1047100043B105F1240000F0E3FE0028F3D000F0DF
:1047200073FFF0E7FF2385F84530FFF725FDFFF71E
:1047300001FD95F8444064B201E0013C64B2002CF4
:104740000ADD2B6943B105F1100000F0C9FE002815
:10475000F3D000F059FFF0E7FF2385F84430FFF76E
:104760000BFD38BD38B5E0B10D460446FFF7E2FC5D
:104770002368E26B216C01FB0230A0600020A06383
:104780006360013A02FB0133E360FF2384F84430A5
:1047900084F84530FDB9236963B9FFF7EDFC0120CA
:1047A00038BD4FF0500383F31188BFF36F8FBFF311
:1047B0004F8FFEE704F1100000F092FE0028ECD0CD
:1047C0004FF0E0234FF08052C3F8042DBFF34F8F1A
:1047D000BFF36F8FE1E704F11000FFF7FDFB04F179
:1047E0002400FFF7F9FBD8E738B51D46049C0B46BB
:1047F00049B92460E063236401212046FFF7B2FF3A
:1048000084F84C5038BD2260F4E740B94FF05003B3
:1048100083F31188BFF36F8FBFF34F8FFEE710B59F
:1048200084B01C4683B10B1E18BF0123002A08BFA9
:1048300043F001038BB94FF0500383F31188BFF3AA
:104840006F8FBFF34F8FFEE74FF0500383F3118854
:10485000BFF36F8FBFF34F8FFEE7B1FA81F35B09B0
:10486000002A18BF43F0010343B94FF0500383F30C
:104870001188BFF36F8FBFF34F8FFEE75023039371
:10488000039B502B08D04FF0500383F31188BFF3E4
:104890006F8FBFF34F8FFEE7039B012384F84630F1
:1048A00000949DF81830FFF79FFF204604B010BD1C
:1048B000F0B585B0019288B10F461D460446B1B1EE
:1048C000022D20D1E36B012B1DD04FF0500383F359
:1048D0001188BFF36F8FBFF34F8FFEE74FF0500388
:1048E00083F31188BFF36F8FBFF34F8FFEE7036C25
:1048F000002BE5D04FF0500383F31188BFF36F8F87
:10490000BFF34F8FFEE700F085FE064658B9019BC6
:10491000002B48D04FF0500383F31188BFF36F8F03
:10492000BFF34F8FFEE700263DE02A46394620467A
:10493000FFF794FE636A7BB948B14FF0E0234FF074
:104940008052C3F8042DBFF34F8FBFF36F8FFFF773
:1049500013FC012005B0F0BD04F1240000F0C0FDFF
:104960000028F4D04FF0E0234FF08052C3F8042D1C
:10497000BFF34F8FBFF36F8FE9E7FFF7FDFB002019
:10498000E8E702A800F0F2FD012619E0002384F810
:10499000443021E0002384F8453023E02046FFF72F
:1049A000AAFE00F07BFCFFF7C5FBA26BE36B9A420B
:1049B000BBD3022DB9D0019B002BDED0002EE0D05E
:1049C000FFF7DAFB00F0D0FBFFF7B4FB94F84420CC
:1049D00052B2B2F1FF3FD9D094F8452052B2B2F1B1
:1049E000FF3FD7D0FFF7C8FB01A902A800F0CAFD1E
:1049F000D8B92046FFF716FE0028CFD0019904F160
:104A0000100000F039FD2046FFF775FE00F046FC6F
:104A10000028C8D14FF0E0234FF08052C3F8042D96
:104A2000BFF34F8FBFF36F8FBDE72046FFF763FEE5
:104A300000F034FC00208DE72DE9F84390B10F46DB
:104A400016461C460546B1B1022C20D1EB6B012B5A
:104A50001DD04FF0500383F31188BFF36F8FBFF366
:104A60004F8FFEE74FF0500383F31188BFF36F8F32
:104A7000BFF34F8FFEE7036C002BE5D04FF05003E0
:104A800083F31188BFF36F8FBFF34F8FFEE7FFF7FC
:104A900077FCEFF311884FF0500383F31188BFF3D5
:104AA0006F8FBFF34F8FAA6BEB6B9A4206D3022C2A
:104AB00004D0002088F31188BDE8F88395F845906C
:104AC0004FFA89F9AB6B224639462846FFF7C6FDF7
:104AD000B9F1FF3F06D009F101035BB285F845301B
:104AE0000120E7E76B6A0BB90120E3E705F1240039
:104AF00000F0F6FC18B126B101203060DAE70120A1
:104B0000D8E70120D6E7F0B585B0019290B10F4605
:104B10000446C1B100F07EFD064600BB019B002BA0
:104B20005ED04FF0500383F31188BFF36F8FBFF354
:104B30004F8FFEE74FF0500383F31188BFF36F8F61
:104B4000BFF34F8FFEE7036C002BE3D04FF0500311
:104B500083F31188BFF36F8FBFF34F8FFEE70026FB
:104B60003EE039462046FFF7B4FD013DA5632369C9
:104B700023B9FFF701FB012005B0F0BD04F11000DF
:104B800000F0AEFC0028F4D04FF0E0234FF080524C
:104B9000C3F8042DBFF34F8FBFF36F8FE9E7FFF723
:104BA000EBFA0020E8E702A800F0E0FC012621E093
:104BB000002384F8443029E0002384F845302BE0BA
:104BC0002046FFF798FD00F069FB09E02046FFF75B
:104BD00092FD00F063FB2046FFF733FD00283FD134
:104BE000FFF7A8FAA56B002DBBD1019B002BD6D0F7
:104BF000002ED8D0FFF7C0FA00F0B6FAFFF79AFA05
:104C000094F844305BB2B3F1FF3FD1D094F8453013
:104C10005BB2B3F1FF3FCFD0FFF7AEFA01A902A814
:104C200000F0B0FC0028D1D12046FFF70AFD002893
:104C3000C6D0019904F1240000F01EFC2046FFF7C5
:104C40005AFD00F02BFB0028CAD14FF0E0234FF0B3
:104C50008052C3F8042DBFF34F8FBFF36F8FBFE7B0
:104C6000002089E70023072B0CD8074A52F833208D
:104C70000AB10133F7E7044A42F8331002EBC302EA
:104C800050607047704700BFB045002070B50446C3
:104C90000D461646FFF74EFA94F844305BB2B3F176
:104CA000FF3F0DD094F845305BB2B3F1FF3F0BD01E
:104CB000FFF762FAA36B5BB12046FFF71CFD70BDE6
:104CC000002384F84430EDE7002384F84530EFE713
:104CD0003246294604F1240000F0E6FBECE7000030
:104CE000084B1B681B6823B9074B4FF0FF321A6053
:104CF0007047044B1B68DB68DB685A68024B1A601C
:104D0000704700BF60460020F84500202DE9F047BD
:104D100080460D4617469946089EDDF824A00A9C59
:104D20009200A521206B00F026FF236B6FF040421C
:104D30003A4403EB820727F00707A5B34FF0000CB6
:104D4000BCF10F0F09D815F80C3004EB0C0282F8F7
:104D5000343013B10CF1010CF2E7002384F8433036
:104D6000372E00D93726E662E66400252565201D2A
:104D7000FFF73DF904F11800FFF739F92461C6F196
:104D80003806A6616462656584F858504A46414613
:104D90003846FFF7A5F92060BAF1000F01D0CAF834
:104DA0000040BDE8F087002384F83430D8E70000E5
:104DB00038B5002407E004EB840293000E48184441
:104DC000FFF70AF90134372CF5D90C4D2846FFF7C7
:104DD00003F90B4C2046FFF7FFF80A48FFF7FCF8F1
:104DE0000948FFF7F9F80948FFF7F6F8084B1D6086
:104DF000084B1C6038BD00BF8C4600207846002060
:104E00006446002048460020344600201C4600200E
:104E1000604600205C46002010B50446FFF78AF982
:104E2000224A136801331360214B1B685BB1214B8D
:104E30001B686BB91E4B1B68DA6AE36A9A4207D893
:104E40001B4B1C6004E01A4B1C601368012B29D01B
:104E5000194A1368013313606364E06A174B1B68D7
:104E6000984201D9154B186000EB8000211D144BAE
:104E700003EB8000FFF7BEF8FFF77EF90D4B1B68D0
:104E80007BB10B4B1B68DA6AE36A9A4209D24FF096
:104E9000E0234FF08052C3F8042DBFF34F8FBFF3D0
:104EA0006F8F10BDFFF784FFD2E700BF18460020C8
:104EB000EC4A00200C460020FC4500201046002053
:104EC0008C46002010B5044690F8593063B1012B90
:104ED00011D0022B0ED04FF0500383F31188BFF393
:104EE0006F8FBFF34F8FFEE7006BFFF75DFB204630
:104EF000FFF75AFB10BDFFF757FBFBE70F4B1B6893
:104F0000D3B110B5FFF716F90D4BDB68DC68201D37
:104F1000FFF794F80B4A1368013B1360074A1368C4
:104F2000013B1360FFF728F92046FFF7CBFF034B47
:104F30001B68002BE6D110BD704700BF3046002033
:104F4000344600201846002008B5FFF7D7FF074B6E
:104F50001B68012BF9D94FF0E0234FF08052C3F8C2
:104F6000042DBFF34F8FBFF36F8FEEE78C46002009
:104F700070B504460D46194B1E68194B186804306D
:104F8000FFF75CF8B4F1FF3F14BF00230123002DAD
:104F900008BF00236BB93444114B1B685C60A64208
:104FA0000ED9104B18680E4B19680431FFF72DF815
:104FB00070BD0B4B196804310B48FFF71BF8F7E77E
:104FC0000A4B1868064B19680431FFF71EF8084BA6
:104FD0001B68A342ECD9064B1C60E9E7144600208D
:104FE000EC4A00205C4600201C4600206046002061
:104FF000F845002030B587B00B9C7CB10C9DB5B155
:105000005C250495049D5C2D1AD04FF0500383F36A
:105010001188BFF36F8FBFF34F8FFEE74FF0500340
:1050200083F31188BFF36F8FBFF34F8FFEE74FF00D
:10503000500383F31188BFF36F8FBFF34F8FFEE7E9
:10504000049D0C9D2C63022485F859400024039490
:10505000029505AC01940A9C0094FFF757FE0C984A
:10506000FFF7DAFE059807B030BD2DE9F04385B0B3
:105070000746884614461E469000FFF713FA08B309
:1050800081465C20FFF70EFA0546A8B1C0F83090C3
:10509000002380F85930039302900D9B01930C9BE1
:1050A00000933346224641463846FFF72FFE2846F6
:1050B000FFF7B2FE012007E04846FFF775FA4FF010
:1050C000FF3001E04FF0FF3005B0BDE8F083000095
:1050D00010B588B000240594069407AA06A905A86F
:1050E000FEF762FF059B0293069B01930094234603
:1050F000079A17491748FFF77DFF174B1860C0B193
:1051000000F050FB012815D14FF0500383F31188B4
:10511000BFF36F8FBFF34F8F104B4FF0FF321A600A
:105120000F4B01221A600F4B00221A60FFF79CF808
:1051300003E00020B0F1FF3F01D008B010BD4FF0F8
:10514000500383F31188BFF36F8FBFF34F8FFEE7D8
:10515000D85E0008494F0008F4450020F8450020BB
:105160000C46002014460020024A136801331360E5
:10517000704700BFF0450020014B1868704700BF22
:1051800014460020F8B53A4B1B68002B69D1394B07
:105190001D6801351D60C5B9374B1B681B6843B1DD
:1051A0004FF0500383F31188BFF36F8FBFF34F8F1E
:1051B000FEE7314A1168314B186810601960304AB7
:1051C000136801331360FFF78BFD2E4B1B68AB4256
:1051D0003DD900272C4B1B68DB6A03EB83039A0045
:1051E0002A4B9B58012B00D90127294B1B68002B08
:1051F0003CD001273AE001271F4B1B681B6843B3D3
:105200001D4B1B68DB68DC6863689D4226D3261D46
:105210003046FEF713FFA36A1BB104F11800FEF736
:105220000DFFE36A1B4A1268934201D9194A1360C1
:1052300003EB83039A00314614481044FEF7DAFE6C
:10524000E26A114B1B68DB6A9A42D4D2D4E700278A
:10525000D2E70C4B4FF0FF321A60BBE7094A1360EC
:10526000B8E70D4A13680133136000273846F8BDCC
:10527000F045002014460020604600205C460020D7
:1052800000460020F8450020EC4A00208C46002013
:1052900004460020104600200846002038B5354B53
:1052A0001B6843B94FF0500383F31188BFF36F8F2E
:1052B000BFF34F8FFEE7FEF73DFF2E4B1A68013A12
:1052C0001A601B68002B4FD12B4B1B680BB90024B5
:1052D0004BE00024294B1B681BB3284BDB68DC68C0
:1052E00004F11800FEF7AAFE251D2846FEF7A6FECB
:1052F000E06A234B1B68984201D9214B186000EBF0
:10530000800029461F4B03EB8000FEF773FEE26A24
:105310001D4B1B68DB6A9A42DCD31C4B01221A60CE
:10532000D8E70CB1FFF7DCFC194B1C6884B9174BAC
:105330001C68D4B14FF0E0234FF08052C3F8042D25
:10534000BFF34F8FBFF36F8F01240EE0013C07D0F6
:10535000FFF718FF0028F9D00C4B01221A60F5E77F
:105360000B4B00221A60E2E70024FEF705FF2046FF
:1053700038BD00BFF04500201846002048460020F8
:10538000104600208C460020EC4A002004460020F5
:105390000846002010B5A8B10446104B1B6843B165
:1053A0004FF0500383F31188BFF36F8FBFF34F8F1C
:1053B000FEE7FFF7D9FE00212046FFF7D9FDFFF7F2
:1053C0006DFF48B94FF0E0234FF08052C3F8042D31
:1053D000BFF34F8FBFF36F8F10BD00BFF0450020AC
:1053E000204B1B681BB1204B01221A6070471E4BDB
:1053F00000221A601D4B1B6803EB83018A001C49C5
:105400008A585AB90BB1013BF6E74FF0500383F3CA
:105410001188BFF36F8FBFF34F8FFEE7084603EB92
:1054200083018A00024451684968516003EB830C90
:105430004FEA8C020832024491420BD003EB830204
:1054400091000B4A0A445268D1680A4A1160074A1F
:1054500013607047486862469100054A0A445060EC
:10546000ECE700BFF0450020044600201046002075
:105470008C460020EC4A002058B110B50C46094A71
:1054800011681831FEF7C1FD01212046FFF770FDBC
:1054900010BD4FF0500383F31188BFF36F8FBFF33C
:1054A0004F8FFEE7EC4A002038B570B10D46144628
:1054B0000A4A11681831FEF79DFD0CB14FF0FF3517
:1054C00021462846FFF754FD38BD4FF0500383F3C3
:1054D0001188BFF36F8FBFF34F8FFEE7EC4A0020B8
:1054E00038B5C368DC6824B304F118052846FEF714
:1054F000A5FD184B1B682BBB251D2846FEF79EFDFE
:10550000E06A154B1B68984201D9134B186000EBF9
:1055100080002946114B03EB8000FEF76BFDE26A29
:105520000F4B1B68DB6A9A4211D901200D4B1860A2
:1055300038BD4FF0500383F31188BFF36F8FBFF373
:105540004F8FFEE729460848FEF754FDE7E70020A5
:10555000EEE700BFF0450020104600208C460020FA
:10556000EC4A00200446002048460020034B1B68FC
:105570000360034B1B684360704700BF0046002078
:1055800014460020F8B5C8B10C460546F9B1FEF73F
:10559000D1FD1B4B19686B68C81A2268B2F1FF3F36
:1055A00026D0184E36682F68B74201D08B4224D9D6
:1055B000824215D80023236001241AE04FF05003E3
:1055C00083F31188BFF36F8FBFF34F8FFEE74FF068
:1055D000500383F31188BFF36F8FBFF34F8FFEE744
:1055E0005B1A134423602846FFF7C0FF002400E045
:1055F0000024FEF7C1FD2046F8BD0124F9E700BFF5
:105600001446002000460020014B01221A6070471A
:1056100004460020054B1B6833B1054B1B680BB1DA
:105620000020704702207047012070470C46002080
:10563000F045002000283BD038B504461E4B1B68BF
:10564000834208D04FF0500383F31188BFF36F8F6C
:10565000BFF34F8FFEE7036D43B94FF0500383F361
:105660001188BFF36F8FBFF34F8FFEE7013B0365D8
:10567000C16AC26C91421DD00BB1002038BD051D1E
:105680002846FEF7DBFCE06CE062C0F13803A36162
:105690000A4B1B68984201D9084B186000EB800048
:1056A0002946074B03EB8000FEF7A4FC0120E5E749
:1056B000002070470020E1E7EC4A0020104600205F
:1056C0008C460020064B1A6813682BB9012303602F
:1056D00023B9D368186870470023F8E700207047A3
:1056E000F04B002008B54160006191420CD8D21AFD
:1056F00083699A4201D3012008BD011D0B4B186834
:10570000FEF783FC0020F7E79A422CBF002201221B
:10571000994238BF00220AB10120EDE7011D044B78
:105720001868FEF772FC0020E6E700BFEC4B002093
:10573000F04B002030B583B0FEF7FCFC114B1B682A
:105740001BB1FEF719FD03B030BD0F4D2846FEF723
:1057500043FC0E4C2046FEF73FFC0D4B1D600D4BED
:105760001C60002300930C4B0C4A10210A20FFF709
:105770004CF8044B18600028E3D00949FFF772FA8F
:10578000DFE700BFE84B0020084C0020F44B00206E
:10579000F04B0020EC4B0020F04A0020404B002052
:1057A000E05E000810B588B0FFF7C4FF124B1B681D
:1057B000CBB100240594069407AA06A905A8FEF714
:1057C000FFFB059B0293069B019302230093234654
:1057D000079A0A490A48FFF70DFC0A4B186010B1F6
:1057E000012008B010BD4FF0500383F31188BFF3C0
:1057F0006F8FBFF34F8FFEE7E84B0020E85E000895
:105800000D5B0008E44B0020B8B19C4603461848E5
:10581000006858B300B585B0009101920293052944
:105820001CDCFFF7F7FE022810D000231A46694659
:105830000F480068FFF73CF815E04FF0500383F382
:105840001188BFF36F8FBFF34F8FFEE70023069AD7
:10585000694607480068FFF72BF804E0002362461A
:105860006946FFF7E9F805B05DF804FB00207047D2
:10587000E84B002070B582B01B4B1B681A6862B3FE
:10588000DB681E68DC68251D2846FEF7D7FB236A07
:105890002046984794F8283013F0040FECD0A36901
:1058A00033449E4207D26360246129460E4B186838
:1058B000FEF7ABFBE0E7002100910B4632462046A5
:1058C000FFF7A2FF0028D7D14FF0500383F31188D0
:1058D000BFF36F8FBFF34F8FFEE7044A1068024992
:1058E0000860136002B070BDF04B0020EC4B00204C
:1058F00038B50546FFF740FC0446074B1B6883425A
:1059000005D800232B60044B1C60204638BDFFF7F0
:10591000B1FF01232B60F6E7E04B002070B582B0A9
:1059200006460D4617490968C968CC68201DFEF770
:1059300085FB94F828C01CF0040F08D12CF0010C52
:1059400084F828C0236A2046984702B070BDA16938
:1059500033462A4631442046FFF7C4FE0028F1D0E2
:10596000002100910B4632462046FFF74DFF0028EC
:10597000E8D14FF0500383F31188BFF36F8FBFF36B
:105980004F8FFEE7F04B002070B582B006460C4604
:10599000FFF7EAFB01A8FFF7ABFF019B3BBB054606
:1059A000B04228BF002C19D024B1134A12681268E3
:1059B000DAB901242246711B104B1868FFF766F90B
:1059C000FFF76CFCA8B94FF0E0234FF08052C3F80A
:1059D000042DBFF34F8FBFF36F8F0AE0FFF75EFC1C
:1059E00029463046FFF79AFF03E01C46E2E7FFF73F
:1059F00055FC02B070BD00BFEC4B0020E84B00200E
:105A000010B588B002E0049B002B0FDA002204A935
:105A10003D4B1868FFF777F8002873D0049B002BE4
:105A2000F1DA07990698059B9847ECE7069C6369AD
:105A300013B1201DFEF702FB03A8FFF759FF049BDB
:105A4000092BE3D8DFE803F00505053037500505DD
:105A5000303794F8283043F0010384F82830059B50
:105A6000A169024619442046FFF73CFE0028CDD02C
:105A7000236A2046984794F8283013F0040FC5D0C5
:105A8000A269002100910B46059802442046FFF7C9
:105A9000BBFE0028BAD14FF0500383F31188BFF347
:105AA0006F8FBFF34F8FFEE794F8283023F0010388
:105AB00084F82830AAE794F8283043F0010384F8EA
:105AC00028300599A16131B10346024601442046C0
:105AD000FFF708FE9AE74FF0500383F31188BFF3F6
